:030000000219FDE5
:03000B000200AA46
:03002B0002015D72
:03005B000202ECB2
:030073000202D9AD
:1000800002030406080C10182030406080040608A3
:100090000C10182030406080A0C00003070F1F0D17
:1000A0000D04050D050205030302C2AFC0D0C0E078
:1000B000206214E5256009E473E525F4F58AD2622F
:1000C000D0E0D0D0D2AF3285268AC262E526F46075
:1000D00030D0E0D0D0C285C287C295D2AF32C285BF
:1000E000C287C295206F13206510740FD5E0FDE51F
:1000F0007BB44004429001FA4280D0E0D0D0D2AF2D
:1001000032758A00C28DD26201FA01B930680520C9
:100110006502D28501B9306805206502D28701B930
:10012000306805206502D29501B9C28430680A2082
:100130006507740FD5E0FDD28501B9C28630680A23
:10014000206507740FD5E0FDD28701B9C2963068EB
:100150000A206507740FD5E0FDD29501B9C2AFC280
:10016000AD53E6EFC0D0C0E0D2D3D2AFC2CEE52AC5
:10017000600720744F152A21C47800790020742E5E
:10018000E580307E01F430E30278FF53DACF207E41
:100190000343DA20307E0343DA10C2D8C271E5800F
:1001A000307E01F430E30279FFC3E89970CB30610F
:1001B00003752A18207403752A18885CD270E860C9
:1001C00003755F0020740DE52B6004152B21D443CB
:1001D000DA01C2D82070024143A85C206102C270DB
:1001E0002074367982B70431C3E894F0400374F088
:1001F000F8E8C4540F28F87984B703024119C313EF
:10020000C3138721200802C313200A06C3C898F825
:10021000411928F8500374FFF88822E52D54066030
:1002200022206B1FE536C333C333F8E564C313C321
:1002300013F9C3952240028922E82522F5225003B2
:100240007522FF7882B6044E852224A824C3E524B3
:1002500095614002A861C3E895634002A8638825C0
:10026000E56670024194C3E8AA669A5003E8FAE48E
:10027000F9EAC333FBE568F45B29400D2567F8E52F
:100280006760021567400B41940AC3E5679A500204
:10029000056778FF882620CF0AD0E0D0D043E6104B
:1002A000D2AD32C2CF053A7801E52A60053074023A
:1002B000152AC3E55C94014005755F0041CF756068
:1002C00000756900E55F2401F55F5003755FFFD09D
:1002D000E0D0D043E610D2AD32C2AF53E67F759284
:1002E000FA7593FFC260759104D2AF32C2AF53E684
:1002F000EFC2ADC0D0C0E0C0F0D2D3D2AFA8FBA94E
:10030000FCC2D8307102615353DACF207E0343DA46
:1003100010307E0343DA20D271E580307E01F42074
:10032000E302612A88278928A18053DACF207E033F
:1003300043DA20307E0343DA10C2D8C2713074022F
:10034000A16C7800E580307E01F430E302A16C8876
:100350005CA15453DACF207E0343DA20307E03437E
:10036000DA10C271206102812C53DACF207E034360
:10037000DA10307E0343DA20C2D8D2718857895808
:10038000C3E89555F8E99556F97B007E087A00C3D5
:10039000E8948CE994005005755B00811E882178F3
:1003A000A2E6A8216055C3E894C8E994005008E487
:1003B000D2E4FB7A0A61F9C3E89468E99401500831
:1003C000E4D2E3FB7A0F61F9C3E894D0E9940250D8
:1003D00008E4D2E2FB7A1E61F9C3E894A0E994052F
:1003E0005008E4D2E1FB7A3C61F9C3E89498E994BF
:1003F000085008E4D2E0FB7A787E00C3E89559FC07
:10040000E9955AFD30E70AECF42401FCEDF43400E0
:10041000FD755B00C3EC9AED9E5003755B01885936
:10042000895A8557558558567802A154C3E89527AF
:10043000F8E99528F9307C02A138307B02A13830E8
:100440007A02A131207502814FE9FDE8FC816EE955
:10045000C313F9E813F8307902A131E9C313F9E8BD
:1004600013F8307802A131E9C313FDE813FC2061D1
:0F0470002CC3EC941CED940240028185ED701EAC
:10047F00C3EC94C850180529E52970021529C3E566
:10048F0029940A5002A16C755C00D270A16CE52909
:10049F00600215297888E6F97400207F087896B9EC
:1004AF000302789EE624FAFEE43400FFC3EC9EFCC0
:1004BF00ED9FFD9208B90310A2085007207609D2CC
:1004CF007681D7307602C276A2085016B9030DECAA
:1004DF00F42401FCEDF43400FD0204F178007900FE
:1004EF00A138B90315EC33FCED33FDC3EC940AFCD2
:1004FF00ED9400FD50047C007D00C3EC94FFED945F
:10050F0000400678FF7900A138EC8572F0A4C5F0A1
:10051F00A2F733F87900400302055478FF790002FF
:10052F000554E9C313F9E813F8307C0EE96002783B
:10053F00FFC3E81338F8E43400F9C3E894FFE994F3
:10054F0000400278FF885CD270206102A16C741F9A
:10055F00F4552F4BF52FC274EB7002D274752A1815
:10056F00307403752A0A306102A18020740353DAB4
:10057F00FE207403752B06D0F0D0E0D0D0D2AD435F
:10058F00E6103279010205B079030205B0790A024B
:10059F0005B0791E0205B079640205B079C802056D
:1005AF00B07817E4D5E0FDD8FAD9F6227A147B7823
:1005BF000205D77A107B8C0205D77A0D7BB4020522
:1005CF00D77A0B7BC80205D7E573D5E001227902F4
:1005DF00E4C286D5E0FDD287D5E0FDC287D5E0FD28
:1005EF00D286D5E0FDE920E002D28530E002D29537
:1005FF00E573D5E0FDE920E002C28530E002C29547
:10060F007496D5E0FDD9C9EAF8D5E0FDD8FBDBB883
:10061F00C28622C37C007D0075F00005F0EA33FA34
:10062F00EB33FB50F6EB13FBEA13FAC3E9FFE8FEDB
:10063F00E89AF8E99BF95004EFF9EEF8B3EC33FCC4
:10064F00ED33FDD5F0DFEDF9ECF822E889F08A20E3
:10065F00D2D4F8A9F07B0030F70B7BFFF42401F81C
:10066F00E9F43400F9E88520F0A4ADF0F8E985202D
:10067F00F0A4AFF0FEED2EF974003FFA7C04C3EA4C
:10068F0013FAE913F9E813F8DCF48BF030F70AE802
:10069F00F42401F8E9F43400F9E889F0C2D4F8A998
:1006AF00F0227882B6040302070CC3E55C94014084
:1006BF00030206D6852224E4F544F545F546F547B1
:1006CF00F548C26E02070C7882E6FCD26EE522F581
:1006DF0023783879C7AA40AB41C3EB13FBEA13FA6F
:1006EF00EC146013C3EB13FBEA13FAEC141460075A
:1006FF00C3EB13FBEA13FAD1228844894522C3E5E1
:10070F00449523F8E5459400F9500CC3E89480E92B
:10071F0094FF401602073DC3E8947FE9940050030D
:10072F0002073D787F790002073D788079FF88497D
:10073F00894A22E5492546F8E54A3547F9854A2091
:10074F00E4300701F43548FA30E709C3EA94F04082
:10075F001502077BC3EA940F500302077B78FF79DA
:10076F00FF7A0F02077B780079007AF0C3E52495B2
:10077F0061500AC374019524500B020799E54A2072
:10078F00E70E020799E54A30E706884689478A4807
:10079F002278A6E6FAC3E54933F8E54A33F9D15A88
:1007AF00E930E70BC3E89480E994FF4013E1D3C32A
:1007BF00E8947FE994005002E1D3787F7900E1D388
:1007CF00788079FFE820E715C3E52398F84009C33F
:1007DF00E8940140030207FA78010207FAE8F424CB
:1007EF00012523F840030207FA78FF884B2278A7E8
:1007FF00E6FAA847A94812065AE930E70CC3E8946D
:10080F0001E994FF401602082FC3E894FFE9940012
:10081F00500302082F78FF790002082F780179FF23
:10082F00E920E715C3E54B98F84009C3E894014068
:10083F00030208567801020856E8F42401254BF804
:10084F00400302085678FF88242278FF2069287910
:10085F00A1E76023E541601F74FF8541F08485396E
:0F086F00F0306A0375F005A4F8C5F0600278FF59
:10087E00C3E895645002A864886322C3E54094409F
:10088E00E5419401E563500314019A046002F56397
:10089E00220208A22275E890227883E6FF30EDF955
:1008AE00A8BDA9BE0570C3E57094084052757000CE
:1008BE00E9FA79A0E76044EA7007E571601B020867
:1008CE00DBC3E895716010E5715006600C140208E8
:1008DE00E70460F90208E7E571F571C3946D401BFA
:1008EE007561C0C394044013756180C39404400BBA
:1008FE00756140C39404400375610075BB0A22E51F
:10090E00612410500274FFF5617982B7040221341C
:10091E00C3A861E524985002A824C3E89563400259
:10092E00A86388258826E570B4070375BB1022746A
:10093E003279A887F0A4C5F0A2F733F8C3E8956121
:10094E004002A8618822882488258826886422751A
:10095E0040007541F022C2AF75C820A8CCA9CDAA1F
:10096E003A30CF010A75C824D2AFAB3BAC3C883BC2
:10097E00893CC3E89BF8E99C206908F9306602417E
:10098E007521CFAD3D8A3DF9EA9DFA600678FF7973
:10099E00FF21B4AE3EAF3F8B3E8C3FA83BA93CC37C
:1009AE00E89EF8E99FF9C3E54113FBE54013FAE829
:1009BE002AF540E93BF54150067540FF7541FF4170
:1009CE001CAA40AB41AC40AD417E047F02C3EB9408
:1009DE0004400D1E1FC3EB94084005206A021E1F23
:1009EE00C3ED13FDEC13FCDEF7C3EA9CFAEB9DFBA3
:1009FE00EF6009C3E913F9E813F8DFF7EA28FAEB19
:100A0E0039FB8A408B4150067BFF8B408B41C3EBF9
:100A1E0094025002D2663069047F0341477892E611
:100A2E00FFC3E537948240110FC3E53794A0400110
:100A3E000FC3EF940640027F057E02E541C4540FBA
:100A4E00F9E541C454F0F8E540C4540F28F8C3E862
:100A5E009EFAE99400FB4009C3EA9402EB9400501D
:100A6E00047A02E4FB41C1AA40AB41EBC4FEEAC4E6
:100A7E00540F4EFCC3EA9CFAEB9400FBC3E813C37D
:100A8E0013F8EA28FAEB3400FB8A408B41C3EB944F
:100A9E00024002C2667802EBC4FE7B00EAC4540F29
:100AAE004EFAC3EA98FA4005C3940250027A0278CD
:100ABE0092E6FF30600241C1855192855293D26019
:100ACE0043E680C3E49AF8E49BF9306602614DE890
:100ADE00FAE9FBD3E913FDE813FC88518952C3EF01
:100AEE0094036038EF20E00DE82CF8E93DF9ECFABC
:100AFE00EDFB020B16E828F8E939F9C3E82402F8F1
:100B0E00E93400F97AFE7BFFC3EF9403400E8A535B
:100B1E008B54884D894E8C4F8D50618188538954EA
:100B2E008A4D8B4E8C4F8D503069127553F0755423
:100B3E00FF754FF07550FF7551F07552FF6181E8EA
:100B4E00FAD3E813FC8851C3EF94036020EF20E042
:100B5E0007E82CF8ECFA616DE8282402F87AFEC357
:100B6E00EF940340088A53884D8C4F618188538AD5
:100B7E004D8C4FE568C3335002646BF568306002EC
:100B8E00618B753402D26043E680E52D54066034E5
:100B9E00A840A941C3E913F9E813F8C3E913F9E82A
:100BAE0013F8306904E92440F9C2AF53E67F75911A
:100BBE0000C3E498F594E499F595759104D26043D9
:100BCE00E680D2AF22D264754300752000306C03EC
:100BDE00752040020BF2D264754300752040306CD4
:100BEE000375200078017901206620E52D540660FA
:100BFE0002C2647914E541C313700104F8C394145E
:100C0E0040027814306904781B791B206010E5438C
:100C1E00600C306903D53404D26D819C7193054309
:100C2E00E59B5440B52002818630690908C3E899D6
:100C3E00400118811920640A08C3E899400261F244
:100C4E008119C264C2AF53E67F759100306612758A
:100C5E0094007595F8759104D26043E680D2AF6129
:0F0C6E00F2E5417EFFC3334005C3334001FEC3AF
:100C7D00E49E759400F5958163C3E53394015002AC
:100C8D0061F230640261F2D802819A8119C26DC29B
:100C9D00AF53E67F759100855394855495759104F6
:100CAD00854D92854E93D26043E680D2AFE52D54AB
:100CBD00066008206A020533020CD8306D0D206CD9
:100CCD000A206407158115810216A122780030646F
:100CDD00027801E53775F007A4F9E5F028F5F0E99C
:100CED00A2F013A2F113A2F213F537C394785003B7
:100CFD00753778C3E53795384008D265C285C28708
:100D0D00C295306002A10F854F92855093D26043FA
:100D1D00E68022207D16C2AF754202C286D2843093
:100D2D006202D295D2AF759F45020F10C2AF7542C8
:100D3D0002C286D296306202D285D2AF759F45022D
:100D4D000F10307243207D20C2AF75420390013BDE
:100D5D00757B40C295C296306204D287A16DD28652
:100D6D00D2AF759F46020F10C2AF75420390013B83
:100D7D00757B40C285C284306204D287A18DD28634
:100D8D00D2AF759F44020F10207D17C2AF7542037D
:100D9D00900116C295306202D287D2AF759F46027E
:100DAD000F10C2AF754203900116C285306202D298
:100DBD0087D2AF759F44020F10207D16C2AF7542CA
:100DCD0004C284D296306202D287D2AF759F44029C
:100DDD000F10C2AF754204C296D284306202D28720
:100DED00D2AF759F46020F10307243207D20C2AFE7
:100DFD0075420590012A757B10C287C28630620448
:100E0D00D285C113D284D2AF759F45020F10C2AFE8
:100E1D0075420590014C757B40C287C286306204D5
:100E2D00D295C133D296D2AF759F45020F10207D5A
:100E3D0017C2AF75420590010CC287306202D28590
:100E4D00D2AF759F45020F10C2AF754205900120BC
:100E5D00C2873062EBD295D2AF759F45020F10203D
:100E6D007D16C2AF754206C296D286306202D28519
:100E7D00D2AF759F46020F10C2AF754206C284D223
:100E8D0086306202D295D2AF759F44020F10307238
:100E9D0044207D20C2AF75420190014C757B40C24C
:100EAD0085C284306204D295C1B9D296D2AF759FF6
:100EBD0044020F10C2AF75420190012A757B10C21A
:100ECD0095C296306205D285020EDAD284D2AF7504
:100EDD009F46020F10207D17C2AF75420190012071
:100EED00C285306202D295D2AF759F44020F10C2F7
:100EFD00AF75420190010CC295306202D285D2AF1E
:100F0D00759F46C2652290010A757B00C285C28716
:100F1D00C295C284C286C296C262227880760908C2
:100F2D0076090876040876FF0876030876FF0876BA
:100F3D000B087601087601087601788C7601087623
:100F4D00FF0876FF0876FF0876FF0876FF08760320
:100F5D000876FF0876FF0876FF0876250876D00814
:100F6D0076280876500876040876FF08760208760B
:100F7D000008767A0876FF08760108760108760073
:100F8D00087603087600087600227887E6FFC2729D
:100F9D007888E6C394036008C27DE630E102D27D15
:100FAD00C27E7889E630E102D27EC3EF94026008FA
:100FBD00758E01D273020FCA758E00C273227880AE
:100FCD00E6149000809378A6F67881E61490008060
:100FDD009378A7F67886E61490008D9378A8F67826
:100FED0086E6F539C394025003753902789CE6758F
:100FFD0038FFB402037538A0B4030375388278A3A3
:10100D00E61490009A93F566120F1322227896E655
:10101D00FA7897E6FB7888E6B40305C3EB940EFBEC
:10102D00307F047A007BFFC3EB9AFCC3948250029D
:10103D007C827572000572EC8572F0A4C3E5F094A4
:10104D007D40F222E58054047013E57E5401600268
:10105D00D281E57E54026015D29702107AE57E5456
:0E106D00016002C281E57E54026002C2972239
:10107B00757E00788876017401FA747EFB1205A6E2
:10108B0075BB051205A175E89012059275E89030B5
:10109B00EDFD120592A8BDA9BEE99A5007E89B5039
:1010AB0003437E0175BB071205A175E890120592EB
:1010BB0075E89030EDFD120592A8BDA9BEE99A50D6
:1010CB0007E89B5003437E0275BB0D1205A175E823
:1010DB009012059275E89030EDFD120592A8BDA90E
:1010EB00BEE99A500BE89B5007437E047888760242
:1010FB00E57EF4F57EE57E5404600BD281D2970237
:10110B00112BC281C297E57E54016005D281021179
:10111B001EC281E57E54026005D29702112BC29745
:10112B00017B22D27F111A1205A11205A17A007B35
:10113B00007C10120597E55C2AFA74003BFBDCF38C
:10114B007C04C3EB13FBEA13FADCF7FEC27F111A24
:10115B0022757C00757D00E5EF20E6037520000508
:10116B0020903FFFE520146006901DFF1460009354
:10117B0004600375EF1653D9BF7581C043FF80120E
:10118B00059275EF0643B203E5B3240220E70DF594
:10119B0021E5E320E0068521B343E301120F13752C
:1011AB0080AD75A45275F15E75D4F775903F75A53A
:1011BB00C075F2C875D50075A60175E241120F1303
:1011CB00E4F8F6D8FD756801120F281216F275D1E6
:1011DB000775BC5875BB0A75BA1175E88012059274
:1011EB00D2AF117B1205A175800D75A4F275F1FFBD
:1011FB0075901F75A5E075F2E81205A1C281C29723
:10120B0078988673753001C2AF1205AB1205BB120D
:10121B0005A11205C21205A11205C91205A1C2AF83
:10122B00757C00757D0078FA79FA308307D9FBD885
:10123B00F7021C00120F97120FCB1119111A789885
:10124B008673120F1375881075890275C8247591F2
:10125B000475D84075A82275B80275E690759B8009
:10126B00759D0075D10775BC5875BB0A75BA11759C
:10127B00E880120592D2AF12089F75360053DACF71
:10128B00207E0343DA20307E0343DA1043DA01C2B7
:10129B00D8C2711205ABD2617B037A0CE55B700788
:1012AB007A0CDB030212291205A12070030212290A
:1012BB00C270E55CC3940240E1E52F541F855E5D6F
:1012CB00F55EB55DD5DAD5C26153DACF207E034327
:1012DB00DA20307E0343DA10C2D8C27178A2E670EE
:1012EB0008D274E52F54E0F52FC27575290012054D
:1012FB00A6307409C3E529940A4002D275120597EA
:10130B0078023074027800C3E55C9840F0C2AF12EB
:10131B0005BB1205BB1205BBD2AF1205AB754C005A
:10132B007888E6B40302811E120597788CE6C39485
:10133B0001500302141EE530C39401500302141E26
:10134B00757CA5757DF1207435C3E55C94FF500366
:10135B0002141EC2AF1205D0D2AF1205A6C3E55CB4
:10136B00940150EFC2AF1205BB12059C1205BBD204
:10137B00AF1205A6C3E55C94FF40E90218AA7F02F1
:10138B00D27F111A1205A6C2AFC27F111AAE5CC36F
:10139B00E55C947FD2AF5002812E120592C2AF1240
:1013AB0005D0D2AFDFDA312EC3EE7897F61205AB4C
:1013BB0012182D7F0AD27F111A1205A6C2AFC27F57
:1013CB00111AAE5CC3E55C947FD2AF50E612059266
:1013DB00C2AF1205BB12059C1205BBD2AFDFD631D3
:1013EB002EEE24037896F6F87997E7C394824003A0
:1013FB00985006E824827897F61205AB1217401224
:10140B00185C1205A6111AC3E55C94FF5002614BE0
:10141B000218AA757C00757D00C3E55C954C4003F2
:10142B00855C4C1205A678017988E7B40302780530
:10143B00C3E55C984002612BC2AF1205D01205D0F8
:10144B001205D0D2AF1205AB753000E4F531F53291
:10145B0011510531E531F4703F0532789AE6781970
:0F146B00146012783214600D787D14600878FADE
:10147A00146003753200C3E53298401D120F13122F
:10148A000592153275310078998673C2AF1205D06C
:10149A00D2AF789886731205A612059CE52A7005C4
:1014AA00307402412978012074027806C3E55C98F9
:1014BA00409F7888E6C3940360031205A6E52A7064
:1014CA0003021229C2AF120F13E4F522F523F52401
:1014DA00F525F526F567D2AF7885E6C333F565E4D9
:1014EA00F544F545F546F547F548F570F52CF52D23
:1014FA00F53775700875BB101205921208A330ED06
:10150A00FDA8BDA9BEE97001F888711208A7757017
:10151A000875BB10120F97C2AF7561FF12093D859E
:10152A002261852262852263D2AF75220175240168
:10153A00752501752601856069756A017888E6B4A2
:10154A000307C27D307602D27DD268D26975330034
:10155A00120E6C120E9B12095D12096412095D12B9
:10156A00096412095D120BE41206B1120CD9120DAC
:10157A0020120964120BD3306E0312070D20660382
:10158A00120859306603120889120CD9120D4F122B
:10159A000964120BE4306E03120742120CD9120DC1
:1015AA00C6120964120BD3306E031207A0120CD9AB
:1015BA00120DF5120964120BE4306E031207FD12C4
:1015CA000CD9120E6C1209641208A3120BD3120C56
:1015DA00D9120E9B1208A712096430693285646118
:1015EA00856462856069756A0179187A0CC3E53386
:1015FA0099400FC269D26A8A35856461856463023B
:10160A001619C3E55C9401400302156F0216A9116D
:10161A0051306A25206C22E535147006C26AD26BF5
:10162A00A16FF535C3E55C9401400302156F788814
:10163A00E6C3940360030216A975360078FA79A402
:10164A00E760027803C3E55F985054307404E52AD2
:10165A00604D7888E6B40317207D05207607C179A6
:10166A00307602C179206C07D26C856461A1AE78AC
:10167A00F0306C058564617820C3E541985002A179
:10168A006F306C1BC26CC27D307602D27DD26A7515
:10169A003512856461A16F0536E55C6002C1AC75DF
:1016AA003600C2AF120F137887E6FE7602120F9742
:1016BA007887EEF6E4F522F523F524F525F526F5E7
:1016CA0065752C00752D00D2AF1205A6120F13787E
:1016DA00A4E66006D285D287D295307409C3E5366E
:1016EA009404400241298156901A0D7820121782DB
:1016FA00E520B4550CA3121782E520B4AA030217F9
:10170A0020757CA5757DF1120F28121740757C0093
:10171A00757D0002173F901A0378807B0A121782A0
:10172A00A308DBF9901A0F788C7B19121782A30889
:10173A00DBF9901A2922C2AF1217C51217A2901A02
:10174A0000740E121787A37409121787A37415124F
:10175A001787901A0378807B0A121786A308DBF989
:10176A00901A0F788C7B19121786A308DBF91217C7
:10177A00D81217B6901A2922E493F622E6438F016B
:10178A00538FFDFFC3E583941C400122EF857CB78C
:10179A00857DB7F0538FFE22438F02438F01857CEC
:1017AA00B7857DB7901A0DF0538FFC22901A0D74ED
:1017BA0055F187901A0E74AAF187227A3079D07877
:1017CA0020901A40F182E520F709A3DAF7227A304D
:1017DA0079D0901A40E7F18709A3DAF922AB74A805
:1017EA0075BB01027980BB02027981BB030279824F
:1017FA00BB04027984BB05027986BB06027992BBD7
:10180A0007027987BB080279A3BB0902799CBB0A44
:10181A00027988BB0B027989E8F7227C051205ABAD
:10182A00DCFB22C2AF1205BB1205C21205C91205A2
:10183A00D012059C1205BB1205C21205C91205D0A9
:10184A0012059C1205BB1205C21205C91205D0D297
:10185A00AF22C2AF1205D01205C91205C21205BBCA
:0F186A0012059C1205D01205C91205C21205BB4A
:1018790012059C1205D01205C91205C21205BBD268
:10188900AF22AE74AF75C2AF1205BB1205BB12050C
:10189900BB12059CDEF21205D012059CDFF8D2AF0F
:1018A90022112D11251125757401757501757600A3
:1018B900118B7C05AD5C1205ABC3ED955C70F5C36E
:1018C900E55C9401400AC3E55C94FF40340218E8E2
:1018D9001217E7121740112DC2AF75EF161125DC4B
:1018E900D30576C3E5769403500280C411250575A6
:1018F900E5741490009F93F808C3E5759850028029
:10190900AC112511250574C3E574940C5002809A15
:0D191900120F28121740C2AF75EF161125EE
:0319FD0002115C78
:101A00000E0915090904FF03FF0B01010155AA0185
:101A1000FFFFFFFFFF03FFFFFF25D0285004FF0259
:0A1A2000007AFF010100030000FF3F
:101A400023414C49474E5F4D34363020202020231F
:101A500023424C48454C4923463333302320202031
:101A60002020202020202020202020202020202076
:101C0000C2AFC2D353D9BF7581C043B20343FF8073
:101C1000752438752503B1DC7529A5752AF175E29F
:101C20004043F10853A4F775D4FFD2837DFA7803BB
:101C300079E67C10752200752300901DE97B0675FE
:101C400024987525013083028145208308D8FBD96B
:101C5000F9DCF781B7308308D8FBD9F9DCF781B715
:101C6000B19CE493A3C39A6004DDC381B7DBDBB10D
:101C70008E6002812E7B08E493FAA3B16FDBF87AC1
:101C800030B16F752200752300B18EEAFCEBFDC305
:101C9000ED94FE400EB18E8A278B28ED30E0048A49
:101CA000828B83B18E7AC270D8C3ED94FE601950D6
:101CB000CEBD002BEC600F7520007521FF7529004B
:101CC000752A000200008100A827A9280809D80465
:101CD000D90281DCB192EA89AAF281CE0D81A3C337
:101CE000ED94035053EDA2E092007AC5C3E58294CF
:101CF00000E583941C508A200010438F02438F011B
:101D00008529B7852AB7F0300029A827A92808090E
:101D1000438F01538FFDD804D902A133C3E58394C7
:101D20001C4003A3A11689AAE28529B7852AB7F02A
:101D3000A3A116538FFC817F7AC1BD030CE493A34A
:101D4000FAB153DCF8B14B817F8181AA22AB23B178
:101D50006FEBFAEA6222752608C3E52313F523E543
:101D60002213F52250066323A0632201D526EAB18F
:101D7000DCB1DC75260AEAF4200102D283300102CC
:101D8000C283B1DCC3134002C201D526EB22B1925B
:101D9000EAFB208302A192308302A197752608AE48
:101DA00024AF25C3EF13FFEE13FEB1E0B1DCC3EAAD
:101DB000133083024480FA30E703632201C3E52332
:101DC00013F523E52213F52250066323A0632201B5
:101DD000D526D9E52265236523F52222AE24AF2539
:101DE0000E0FDEFEDFFCD20122424C48656C6934E6
:071DF000373164F3300601F6
:00000001FF
